:100000000C94B0000C94CD000C94CD000C94CD0059
:100010000C94CD000C94CD000C94CD000C94CD002C
:100020000C94CD000C94CD000C942C010C946A011E
:100030000C94CD000C94CD000C94CD000C94CD000C
:100040000C94CD000C94CD000C94CD000C94CD00FC
:100050000C94CD000C94CD000C94CD000C94CD00EC
:100060000C94CD000C94CD000C94CD000C94CD00DC
:100070000C94CD000C9457040C94CD000C94CD003E
:100080000C94CD000C94CD000C94CD000C94CD00BC
:100090000C94CD000C94CD000C94CD000C94CD00AC
:1000A0000C94CD000C94CD000C94CD000001000008
:1000B0004301120002000000014300030000FC00A5
:1000C0000401030904E8001202030904E000060326
:1000D000030904D600080803340031003000000092
:1000E00006034D003200000012034A002E002000DB
:1000F0004600690065006E00650000000403090405
:1001000009024300020100C032090400000102029A
:100110000100052400100105240101010424020648
:1001200005240600010705820310004009040100B0
:10013000020A0000000705030240000007058402D0
:1001400040000012010002020000109A23118000FA
:1001500001010203010001C1120180360181360054
:1001600011241FBECFEFDAE0DEBFCDBF11E0A0E06B
:10017000B1E0EAE5FEE002C005900D92AE33B107B2
:10018000D9F721E0AEE3B1E001C01D92A634B20779
:10019000E1F70E94AC040C942B070C94000081E062
:1001A0008093D70080EA8093D80082E089BD09B4AB
:1001B00000FEFDCF80E98093D8001092E0001092FD
:1001C0004501109242018CE08093E20078940895FA
:1001D000909145019923E1F19FB7F89424E0209391
:1001E000E90020914301222349F02091E80025FDF8
:1001F00003C09FBF8FEF0895109243013091E40038
:10020000375E2091E80025FD14C09FBF9091E40067
:10021000391305C081E0809343018FEF08959091D9
:1002200045019923B9F09FB7F89424E02093E900A1
:10023000E8CF8093F1008091E80085FD03C08AE358
:100240008093E80085E0809344019FBF80E008959B
:100250008FEF08958FEF08951F920F920FB60F92B0
:1002600011248F939F93EF93FF93E1EEF0E0808151
:10027000108283FF11C01092E90091E09093EB008F
:100280001092EC0092E19093ED0098E09093F000D2
:10029000109245011092420182FF13C080914501E6
:1002A000882379F080914401882359F0815080930C
:1002B0004401811106C084E08093E9008AE38093C1
:1002C000E800FF91EF919F918F910F900FBE0F90DB
:1002D0001F9018951F920F920FB60F9211242F9313
:1002E0003F934F935F936F937F938F939F93AF93BE
:1002F000BF93CF93DF93EF93FF931092E900809128
:10030000E80083FF42C1E1EFF0E0B081A0812081ED
:10031000808190E0982F8827822B4081208130E0D7
:10032000322F2227B901642B4081208130E0322F07
:100330002227F901E42BAF0122EF2093E800A63039
:1003400009F051C0A0E02CEA30E0A63020F081E2B4
:100350008093EB001DC1F901C591D4918C179D07C5
:1003600019F0295F3F4F1CC0F9013296C591D49115
:100370006C177D0719F0295F3F4F12C0F9013496C1
:1003800085919491F901369664919A014F3F5105F8
:1003900019F010F02FEF30E0621720F0622F02C04A
:1003A000AF5FD3CF2091E800322F3570D9F322FD13
:1003B000EFC0362F613108F030E1232F09C0AC01C6
:1003C0004F5F5F4FFC0184918093F1002150CA017F
:1003D0002111F5CF631B2EEF2093E8006111E2CFCE
:1003E000303101F3D5C0A53059F42EEF2093E80049
:1003F0002091E80020FFFCCF80688093E300C8C014
:10040000A93079F5B1112DC08093450110924201B8
:10041000109244018EEF8093E80081E025E531E001
:1004200018C08093E900A9014F5F5F4FF9019491D3
:100430009093EB00992359F0FA0144914093EC001A
:100440003196E4912D5F3F4FE093ED0001C09A019A
:100450008F5F853030F3EAEEF0E08EE1808310822A
:1004600097C0A83071F4B03861F48091E80080FF43
:10047000FCCF809145018093F1008EEF8093E800DE
:1004800087C0A132A9F4B13A99F48091E80080FFC5
:10049000FCCFE0E0F1E080E005C090819093F100B6
:1004A0008F5F31968730C8F38EEF8093E80070C07D
:1004B000A032C1F4B132B1F48091E80082FFFCCFE8
:1004C000E0E0F1E080E005C09091F10090838F5F63
:1004D00031968730C8F3E8EEF0E08BEF80838EEF43
:1004E000808356C0A23261F4B13251F4809342014C
:1004F0008091E80080FFFCCF8EEF8093E80048C039
:10050000A1111BC08091E80080FFFCCFB23861F4DC
:100510006093E9008091EB0085FD02C080E001C09E
:1005200081E01092E90001C080E0E1EFF0E080831B
:1005300010828EEF8093E8002BC0A13011F0A33021
:1005400021F5B23011F5892B01F5262F2F778FEF8A
:10055000820F8430D0F48EEF8093E8002093E9007E
:10056000A33021F481E28093EB0012C089E18093F3
:10057000EB0081E090E002C0880F991F2A95E2F716
:10058000EAEEF0E08083108203C081E28093EB000A
:10059000FF91EF91DF91CF91BF91AF919F918F919B
:1005A0007F916F915F914F913F912F910F900FBE6F
:1005B0000F901F9018952F923F924F925F926F92DB
:1005C0007F928F929F92AF92BF92CF92DF92EF92E3
:1005D000FF920F931F93CF93DF934B015C011A019E
:1005E00089012B30310514F00AE010E020E030E002
:1005F000A901C501B4010E941E05882364F4B7FA5D
:10060000B094B7F8B09471018FEFE81AF80A8DE250
:10061000D1018C9301C0710111230CF050C020E076
:1006200030E040E85FE3C501B4010E941E05882365
:10063000ACF120E030E040E251E4C501B4010E9499
:100640001E05882374F120E030E048EC52E4C50137
:10065000B4010E941E0588233CF120E030E04AE707
:1006600054E4C501B4010E941E05882304F120E072
:1006700030E44CE156E4C501B4010E941E05882314
:10068000CCF020E030E543EC57E4C501B4010E9412
:100690001E05882394F401E010E011C006E010E08C
:1006A0000EC005E010E00BC004E010E008C003E05D
:1006B00010E005C002E010E002C000E010E001150B
:1006C000110589F0F801EE0FFF1FEE0FFF1FEF5E1F
:1006D000FE4F2081318142815381C501B4010E94C6
:1006E000B2044B015C01C501B4010E9495052B01C8
:1006F0003C010E94CD059B01AC01C501B4010E94E3
:10070000B1044B015C014114510461047104B1F462
:10071000E701219680E3F701808323C0C301B20182
:100720002AE030E040E050E00E94EA06605D688325
:10073000422E532E642E752E219601C0E7014114DE
:1007400051046104710451F7FE0108C08291D70180
:100750009D919D019083D7018C937901EE16FF0640
:10076000A8F30115110561F18EE28883219622C05C
:1007700020E030E040E251E4C501B4010E947D0672
:100780004B015C010E949C056E01BFEFCB1ADB0A96
:1007900080E3860F888370E080E090E00E94CD05C2
:1007A0009B01AC01C501B4010E94B1044B015C0185
:1007B0008701E6017801E1E0EE1AF108012BC1F6AC
:1007C0001882C101DF91CF911F910F91FF90EF909F
:1007D000DF90CF90BF90AF909F908F907F906F9061
:1007E0005F904F903F902F9008950F931F93CF935A
:1007F000DF93CDB7DEB764970FB6F894DEBF0FBEB8
:10080000CDBFAE014F5F5F4F24E1FA0111922A95EF
:10081000E9F723E030E00E94DB0200E010E00CC0CA
:10082000E1E0F0E0EC0FFD1FE00FF11F808181118E
:100830000E94E8000F5F1F4F043111058CF364968E
:100840000FB6F894DEBF0FBECDBFDF91CF911F91E1
:100850000F9108950F931F93CF93DF938C01C0E006
:10086000D0E007C0F801EC0FFD1F80810E94E80076
:100870002196F80101900020E9F73197E01BF10B78
:10088000CE17DF0778F3DF91CF911F910F91089575
:10089000ECE7F0E080E4808380818E618083EAE78A
:1008A000F0E08EE8808380818064808308951F92C9
:1008B0000F920FB60F9211242F933F934F935F9394
:1008C0006F937F938F939F93AF93BF93EF93FF9318
:1008D000609178007091790080E090E00E94CB05F3
:1008E0009B01AC0160933E0170933F0180934001F6
:1008F000909341016AE979EA8CE894E40E94230527
:1009000060933E0170933F018093400190934101B9
:1009100087E091E00E942A0460913E0170913F01BE
:1009200080914001909141010E94F503EAE7F0E0D7
:10093000808180648083FF91EF91BF91AF919F91FF
:100940008F917F916F915F914F913F912F910F9078
:100950000FBE0F901F9018950E94CF000E94480470
:10096000FFCF5058BB27AA270E94C9040C94430606
:100970000E94350638F00E943C0620F039F49F3F73
:1009800019F426F40C9432060EF4E095E7FB0C946F
:100990002C06E92F0E94540658F3BA176207730712
:1009A0008407950720F079F4A6F50C9476060EF4EA
:1009B000E0950B2EBA2FA02D0B01B90190010C016F
:1009C000CA01A0011124FF27591B99F0593F50F487
:1009D000503E68F11A16F040A22F232F342F4427DF
:1009E000585FF3CF469537952795A795F0405395D7
:1009F000C9F77EF41F16BA0B620B730B840BBAF0A7
:100A00009150A1F0FF0FBB1F661F771F881FC2F711
:100A10000EC0BA0F621F731F841F48F48795779525
:100A20006795B795F7959E3F08F0B0CF9395880FDF
:100A300008F09927EE0F9795879508950E9408066C
:100A400008F481E008950E9437050C9443060E9443
:100A50003C0658F00E94350640F029F45F3F29F02B
:100A60000C942C0651110C9477060C9432060E94BB
:100A7000540668F39923B1F3552391F3951B550B55
:100A8000BB27AA2762177307840738F09F5F5F4F61
:100A9000220F331F441FAA1FA9F335D00E2E3AF0A0
:100AA000E0E832D091505040E695001CCAF72BD0B8
:100AB000FE2F29D0660F771F881FBB1F2617370709
:100AC0004807AB07B0E809F0BB0B802DBF01FF273B
:100AD00093585F4F3AF09E3F510578F00C942C06E6
:100AE0000C9477065F3FE4F3983ED4F386957795B0
:100AF0006795B795F7959F5FC9F7880F911D9695F4
:100B0000879597F90895E1E0660F771F881FBB1F4F
:100B1000621773078407BA0720F0621B730B840BFC
:100B2000BA0BEE1F88F7E09508950E949C05689423
:100B3000B1110C94770608950E945C0688F09F57C7
:100B400098F0B92F9927B751B0F0E1F0660F771FF1
:100B5000881F991F1AF0BA95C9F714C0B13091F0E7
:100B60000E947606B1E008950C947606672F782FE0
:100B70008827B85F39F0B93FCCF3869577956795AC
:100B8000B395D9F73EF490958095709561957F4F18
:100B90008F4F9F4F0895E89409C097FB3EF49095BE
:100BA0008095709561957F4F8F4F9F4F9923A9F046
:100BB000F92F96E9BB279395F695879577956795D5
:100BC000B795F111F8CFFAF4BB0F11F460FF1BC019
:100BD0006F5F7F4F8F4F9F4F16C0882311F096E9AC
:100BE00011C0772321F09EE8872F762F05C066235A
:100BF00071F096E8862F70E060E02AF09A95660F13
:100C0000771F881FDAF7880F9695879597F90895CB
:100C1000990F0008550FAA0BE0E8FEEF161617060D
:100C2000E807F907C0F012161306E407F50798F075
:100C3000621B730B840B950B39F40A2661F0232B8E
:100C4000242B252B21F408950A2609F4A140A6950A
:100C50008FEF811D811D089597F99F6780E870E0EF
:100C600060E008959FEF80EC089500240A94161622
:100C7000170618060906089500240A94121613068A
:100C8000140605060895092E0394000C11F4882318
:100C900052F0BB0F40F4BF2B11F460FF04C06F5F34
:100CA0007F4F8F4F9F4F089557FD9058440F551F0A
:100CB00059F05F3F71F04795880F97FB991F61F0DE
:100CC0009F3F79F087950895121613061406551F55
:100CD000F2CF4695F1DF08C0161617061806991FC1
:100CE000F1CF86957105610508940895E894BB27B6
:100CF00066277727CB0197F908950E9490060C94F8
:100D000043060E94350638F00E943C0620F09523E9
:100D100011F00C942C060C94320611240C947706D6
:100D20000E94540670F3959FC1F3950F50E0551F34
:100D3000629FF001729FBB27F00DB11D639FAA2730
:100D4000F00DB11DAA1F649F6627B00DA11D661F7F
:100D5000829F2227B00DA11D621F739FB00DA11DA0
:100D6000621F839FA00D611D221F749F3327A00D5A
:100D7000611D231F849F600D211D822F762F6A2FF6
:100D800011249F5750409AF0F1F088234AF0EE0F5B
:100D9000FF1FBB1F661F771F881F91505040A9F788
:100DA0009E3F510580F00C942C060C9477065F3F13
:100DB000E4F3983ED4F3869577956795B795F795C4
:100DC000E7959F5FC1F7FE2B880F911D969587953C
:100DD00097F90895052E97FB1EF400940E940107D1
:100DE00057FD07D00E94090707FC03D04EF40C946E
:100DF000010750954095309521953F4F4F4F5F4FDC
:100E0000089590958095709561957F4F8F4F9F4F76
:100E10000895A1E21A2EAA1BBB1BFD010DC0AA1F3B
:100E2000BB1FEE1FFF1FA217B307E407F50720F053
:100E3000A21BB30BE40BF50B661F771F881F991FCE
:100E40001A9469F760957095809590959B01AC0117
:0A0E5000BD01CF010895F894FFCF13
:100E5A0000E100000000080A0D20415663633A20B1
:100E6A00000000003FCDCC4C3D0AD7A33B6F1203D4
:100E7A003A17B75138ACC5A736BD37063595BF56B0
:0E0E8A003377CCAB315F700930FFE65B2E0092
:00000001FF
